{
  "contractName": "GasOracle",
  "abi": [
    {
      "inputs": [
        {
          "name": "_jobId",
          "type": "bytes32"
        }
      ],
      "payable": false,
      "stateMutability": "nonpayable",
      "type": "constructor",
      "signature": "constructor"
    },
    {
      "anonymous": false,
      "inputs": [
        {
          "indexed": false,
          "name": "newPrice",
          "type": "uint256"
        }
      ],
      "name": "OracleUpdated",
      "type": "event",
      "signature": "0x1d9f8660b46684cf0620a1aec89ad8da885e41a4f67fd708b483914dda0e66ed"
    },
    {
      "anonymous": false,
      "inputs": [
        {
          "indexed": true,
          "name": "id",
          "type": "bytes32"
        }
      ],
      "name": "ChainlinkRequested",
      "type": "event",
      "signature": "0xb5e6e01e79f91267dc17b4e6314d5d4d03593d2ceee0fbb452b750bd70ea5af9"
    },
    {
      "anonymous": false,
      "inputs": [
        {
          "indexed": true,
          "name": "id",
          "type": "bytes32"
        }
      ],
      "name": "ChainlinkFulfilled",
      "type": "event",
      "signature": "0x7cc135e0cebb02c3480ae5d74d377283180a2601f8f644edf7987b009316c63a"
    },
    {
      "anonymous": false,
      "inputs": [
        {
          "indexed": true,
          "name": "id",
          "type": "bytes32"
        }
      ],
      "name": "ChainlinkCancelled",
      "type": "event",
      "signature": "0xe1fe3afa0f7f761ff0a8b89086790efd5140d2907ebd5b7ff6bfcb5e075fd4c5"
    },
    {
      "constant": false,
      "inputs": [
        {
          "name": "predictions",
          "type": "bool"
        }
      ],
      "name": "createRequest",
      "outputs": [
        {
          "name": "requestId",
          "type": "bytes32"
        }
      ],
      "payable": false,
      "stateMutability": "nonpayable",
      "type": "function",
      "signature": "0x1a66749a"
    },
    {
      "constant": false,
      "inputs": [
        {
          "name": "_requestId",
          "type": "bytes32"
        },
        {
          "name": "_gasPrice",
          "type": "uint256"
        }
      ],
      "name": "fulfill",
      "outputs": [],
      "payable": false,
      "stateMutability": "nonpayable",
      "type": "function",
      "signature": "0x4357855e"
    },
    {
      "constant": true,
      "inputs": [],
      "name": "getCurrentGasPrice",
      "outputs": [
        {
          "name": "_currentGasPrice",
          "type": "uint256"
        }
      ],
      "payable": false,
      "stateMutability": "view",
      "type": "function",
      "signature": "0x11af6564"
    },
    {
      "constant": true,
      "inputs": [],
      "name": "getLinkBalance",
      "outputs": [
        {
          "name": "_balance",
          "type": "uint256"
        }
      ],
      "payable": false,
      "stateMutability": "view",
      "type": "function",
      "signature": "0x50c5f975"
    }
  ],
  "bytecode": "0x60806040526001600455670de0b6b3a76400006001026006557320fe562d797a42dcb3399062ae9546cd06f63280600960006101000a81548173ffffffffffffffffffffffffffffffffffffffff021916908373ffffffffffffffffffffffffffffffffffffffff16021790555073c99b3d447826532722e41bc36e644ba3479e4365600a60006101000a81548173ffffffffffffffffffffffffffffffffffffffff021916908373ffffffffffffffffffffffffffffffffffffffff1602179055503480156100ce57600080fd5b5060405160208061151583398101806040528101908080519060200190929190505050610108610119640100000000026401000000009004565b806007816000191690555050610229565b6101e373c89bd4e1632d3a43cb03aaad5262cbe4038bc57173ffffffffffffffffffffffffffffffffffffffff166338cc48316040518163ffffffff167c0100000000000000000000000000000000000000000000000000000000028152600401602060405180830381600087803b15801561019457600080fd5b505af11580156101a8573d6000803e3d6000fd5b505050506040513d60208110156101be57600080fd5b81019080805190602001909291905050506101e5640100000000026401000000009004565b565b80600260006101000a81548173ffffffffffffffffffffffffffffffffffffffff021916908373ffffffffffffffffffffffffffffffffffffffff16021790555050565b6112dd806102386000396000f300608060405260043610610062576000357c0100000000000000000000000000000000000000000000000000000000900463ffffffff16806311af6564146100675780631a66749a146100925780634357855e146100dd57806350c5f97514610118575b600080fd5b34801561007357600080fd5b5061007c610143565b6040518082815260200191505060405180910390f35b34801561009e57600080fd5b506100bf60048036038101908080351515906020019092919050505061014d565b60405180826000191660001916815260200191505060405180910390f35b3480156100e957600080fd5b50610116600480360381019080803560001916906020019092919080359060200190929190505050610414565b005b34801561012457600080fd5b5061012d6105cb565b6040518082815260200191505060405180910390f35b6000600854905090565b600061015761120f565b61018760075430634357855e7c0100000000000000000000000000000000000000000000000000000000026106ca565b905082156102925761020e6040805190810160405280600781526020017f65787450617468000000000000000000000000000000000000000000000000008152506040805190810160405280601c81526020017f7472616e73616374696f6e732f6761732f70726564696374696f6e7300000000815250836106fb9092919063ffffffff16565b61028d6040805190810160405280600481526020017f70617468000000000000000000000000000000000000000000000000000000008152506040805190810160405280601881526020017f7061796c6f61642e617665726167652e67617350726963650000000000000000815250836106fb9092919063ffffffff16565b6103dd565b6103116040805190810160405280600781526020017f65787450617468000000000000000000000000000000000000000000000000008152506040805190810160405280601c81526020017f7472616e73616374696f6e732f6761732f70657263656e74696c657300000000815250836106fb9092919063ffffffff16565b6103906040805190810160405280600481526020017f70617468000000000000000000000000000000000000000000000000000000008152506040805190810160405280601681526020017f7061796c6f61642e70657263656e74696c655f30363000000000000000000000815250836106fb9092919063ffffffff16565b6103dc6040805190810160405280600581526020017f74696d65730000000000000000000000000000000000000000000000000000008152506127108361072e9092919063ffffffff16565b5b61040c600a60009054906101000a900473ffffffffffffffffffffffffffffffffffffffff1682600654610761565b915050919050565b8160056000826000191660001916815260200190815260200160002060009054906101000a900473ffffffffffffffffffffffffffffffffffffffff1673ffffffffffffffffffffffffffffffffffffffff163373ffffffffffffffffffffffffffffffffffffffff16141515610519576040517f08c379a00000000000000000000000000000000000000000000000000000000081526004018080602001828103825260288152602001807f536f75726365206d75737420626520746865206f7261636c65206f662074686581526020017f207265717565737400000000000000000000000000000000000000000000000081525060400191505060405180910390fd5b60056000826000191660001916815260200190815260200160002060006101000a81549073ffffffffffffffffffffffffffffffffffffffff021916905580600019167f7cc135e0cebb02c3480ae5d74d377283180a2601f8f644edf7987b009316c63a60405160405180910390a2816008819055507f1d9f8660b46684cf0620a1aec89ad8da885e41a4f67fd708b483914dda0e66ed826040518082815260200191505060405180910390a1505050565b6000600960009054906101000a900473ffffffffffffffffffffffffffffffffffffffff1673ffffffffffffffffffffffffffffffffffffffff166370a08231306040518263ffffffff167c0100000000000000000000000000000000000000000000000000000000028152600401808273ffffffffffffffffffffffffffffffffffffffff1673ffffffffffffffffffffffffffffffffffffffff168152602001915050602060405180830381600087803b15801561068a57600080fd5b505af115801561069e573d6000803e3d6000fd5b505050506040513d60208110156106b457600080fd5b8101908080519060200190929190505050905090565b6106d261120f565b6106da61120f565b6106f185858584610aed909392919063ffffffff16565b9150509392505050565b610712828460800151610ba790919063ffffffff16565b610729818460800151610ba790919063ffffffff16565b505050565b610745828460800151610ba790919063ffffffff16565b61075c818460800151610bcc90919063ffffffff16565b505050565b600030600454604051602001808373ffffffffffffffffffffffffffffffffffffffff1673ffffffffffffffffffffffffffffffffffffffff166c01000000000000000000000000028152601401828152602001925050506040516020818303038152906040526040518082805190602001908083835b6020831015156107fd57805182526020820191506020810190506020830392506107d8565b6001836020036101000a038019825116818451168082178552505050505050905001915050604051809103902090506004548360600181815250508360056000836000191660001916815260200190815260200160002060006101000a81548173ffffffffffffffffffffffffffffffffffffffff021916908373ffffffffffffffffffffffffffffffffffffffff16021790555080600019167fb5e6e01e79f91267dc17b4e6314d5d4d03593d2ceee0fbb452b750bd70ea5af960405160405180910390a2600260009054906101000a900473ffffffffffffffffffffffffffffffffffffffff1673ffffffffffffffffffffffffffffffffffffffff16634000aea0858461090c87610c1a565b6040518463ffffffff167c0100000000000000000000000000000000000000000000000000000000028152600401808473ffffffffffffffffffffffffffffffffffffffff1673ffffffffffffffffffffffffffffffffffffffff16815260200183815260200180602001828103825283818151815260200191508051906020019080838360005b838110156109af578082015181840152602081019050610994565b50505050905090810190601f1680156109dc5780820380516001836020036101000a031916815260200191505b50945050505050602060405180830381600087803b1580156109fd57600080fd5b505af1158015610a11573d6000803e3d6000fd5b505050506040513d6020811015610a2757600080fd5b81019080805190602001909291905050501515610ad2576040517f08c379a00000000000000000000000000000000000000000000000000000000081526004018080602001828103825260238152602001807f756e61626c6520746f207472616e73666572416e6443616c6c20746f206f726181526020017f636c65000000000000000000000000000000000000000000000000000000000081525060400191505060405180910390fd5b60016004600082825401925050819055508090509392505050565b610af561120f565b610b058560800151610100610e45565b50838560000190600019169081600019168152505082856020019073ffffffffffffffffffffffffffffffffffffffff16908173ffffffffffffffffffffffffffffffffffffffff16815250508185604001907bffffffffffffffffffffffffffffffffffffffffffffffffffffffff191690817bffffffffffffffffffffffffffffffffffffffffffffffffffffffff191681525050849050949350505050565b610bb48260038351610e9f565b610bc78183610ffd90919063ffffffff16565b505050565b600081121515610be757610be282600083610e9f565b610c16565b610c15826001837fffffffffffffffffffffffffffffffffffffffffffffffffffffffffffffffff03610e9f565b5b5050565b6060600360009054906101000a900473ffffffffffffffffffffffffffffffffffffffff1673ffffffffffffffffffffffffffffffffffffffff16634042994690507c01000000000000000000000000000000000000000000000000000000000260008084600001518560200151866040015187606001516001896080015160000151604051602401808973ffffffffffffffffffffffffffffffffffffffff1673ffffffffffffffffffffffffffffffffffffffff16815260200188815260200187600019166000191681526020018673ffffffffffffffffffffffffffffffffffffffff1673ffffffffffffffffffffffffffffffffffffffff168152602001857bffffffffffffffffffffffffffffffffffffffffffffffffffffffff19167bffffffffffffffffffffffffffffffffffffffffffffffffffffffff1916815260200184815260200183815260200180602001828103825283818151815260200191508051906020019080838360005b83811015610da8578082015181840152602081019050610d8d565b50505050905090810190601f168015610dd55780820380516001836020036101000a031916815260200191505b509950505050505050505050604051602081830303815290604052907bffffffffffffffffffffffffffffffffffffffffffffffffffffffff19166020820180517bffffffffffffffffffffffffffffffffffffffffffffffffffffffff83818316178352505050509050919050565b610e4d61127d565b6000602083811515610e5b57fe5b06141515610e7857602082811515610e6f57fe5b06602003820191505b81836020018181525050604051808452600081528281016020016040525082905092915050565b601781111515610ed157610ecb8160058460ff169060020a0260ff16178461101f90919063ffffffff16565b50610ff8565b60ff81111515610f1857610efb601860058460ff169060020a02178461101f90919063ffffffff16565b50610f128160018561103f9092919063ffffffff16565b50610ff7565b61ffff81111515610f6057610f43601960058460ff169060020a02178461101f90919063ffffffff16565b50610f5a8160028561103f9092919063ffffffff16565b50610ff6565b63ffffffff81111515610faa57610f8d601a60058460ff169060020a02178461101f90919063ffffffff16565b50610fa48160048561103f9092919063ffffffff16565b50610ff5565b67ffffffffffffffff81111515610ff457610fdb601b60058460ff169060020a02178461101f90919063ffffffff16565b50610ff28160088561103f9092919063ffffffff16565b505b5b5b5b5b505050565b61100561127d565b61101783846000015151848551611061565b905092915050565b61102761127d565b611037838460000151518461111e565b905092915050565b61104761127d565b61105884856000015151858561116e565b90509392505050565b61106961127d565b60008060008551851115151561107e57600080fd5b876020015185880111156110a9576110a88860026110a28b602001518b8a016111cf565b026111eb565b5b8751805188602083010194508089880111156110c55788870182525b60208801935050505b6020851015156110f357815183526020830192506020820191506020850394506110ce565b6001856020036101000a03905080198251168184511681811785525050879350505050949350505050565b61112661127d565b836020015183101515611145576111448460028660200151026111eb565b5b8351805160208583010184815381861415611161576001820183525b5050508390509392505050565b61117661127d565b60008560200151858401111561119657611195866002878601026111eb565b5b6001836101000a03905085518386820101858319825116178152815185880111156111c15784870182525b505085915050949350505050565b6000818311156111e1578290506111e5565b8190505b92915050565b6060826000015190506111fe8383610e45565b506112098382610ffd565b50505050565b60c06040519081016040528060008019168152602001600073ffffffffffffffffffffffffffffffffffffffff16815260200160007bffffffffffffffffffffffffffffffffffffffffffffffffffffffff1916815260200160008152602001611277611297565b81525090565b604080519081016040528060608152602001600081525090565b6040805190810160405280606081526020016000815250905600a165627a7a72305820f63a81d8a1a696f740fd45b03c459eae3ca35d5548bc42a9bd235bbabb70e01f0029",
  "source": "pragma solidity ^0.4.24;\n\nimport \"chainlink/contracts/ChainlinkClient.sol\";\n\ninterface ERC20 {\n  function balanceOf(address _address) returns(uint);\n}\n\n\ncontract GasOracle is ChainlinkClient {\n  uint256 ORACLE_PAYMENT = 1 * LINK;\n  bytes32 jobId;\n\n  uint currentGasPrice;\n\n  event OracleUpdated(uint newPrice);\n\n  address LINK_ADDRESS_ROPSTEN = 0x20fE562d797A42Dcb3399062AE9546cd06f63280;\n  address ORACLE_ADDRESS_ROPSTEN = 0xc99B3D447826532722E41bc36e644ba3479E4365; // AMBERDATA\n\n  constructor (bytes32 _jobId) public {\n    setPublicChainlinkToken();\n    jobId = _jobId;\n  }\n\n  // only works if contract is funded with > 1 LINK\n  /* bool == true > predictions, bool == false > percentiles */\n  function createRequest(bool predictions) public returns (bytes32 requestId) {\n      Chainlink.Request memory req = buildChainlinkRequest(\n          jobId,\n          this,\n          this.fulfill.selector\n      );\n\n      if(predictions){\n        req.add(\"extPath\", \"transactions/gas/predictions\");\n        req.add(\"path\", \"payload.average.gasPrice\");\n      } else {\n        req.add(\"extPath\", \"transactions/gas/percentiles\");\n        req.add(\"path\", \"payload.percentile_060\");\n        req.addInt(\"times\", 10000);\n      }\n\n      requestId = sendChainlinkRequestTo(ORACLE_ADDRESS_ROPSTEN, req, ORACLE_PAYMENT);\n  }\n\n  function fulfill(bytes32 _requestId, uint256 _gasPrice)\n    public\n    recordChainlinkFulfillment(_requestId)\n  {\n    currentGasPrice = _gasPrice;\n    emit OracleUpdated(_gasPrice);\n  }\n\n  function getCurrentGasPrice() public view returns(uint _currentGasPrice){\n    return currentGasPrice;\n  }\n\n  function getLinkBalance() view returns (uint _balance){\n    return ERC20(LINK_ADDRESS_ROPSTEN).balanceOf(address(this));\n  }\n\n}\n",
  "sourcePath": "/Users/michaeljcohen/Desktop/projects/gas-trader/contracts/GasOracle.sol",
  "compiler": {
    "name": "solc",
    "version": "0.4.24+commit.e67f0147.Emscripten.clang"
  },
  "schemaVersion": "3.0.2",
  "updatedAt": "2019-12-07T21:38:08.857Z",
  "devdoc": {
    "methods": {}
  },
  "userdoc": {
    "methods": {}
  }
}