{
  "contractName": "GasOracle",
  "abi": [
    {
      "inputs": [
        {
          "name": "_jobId",
          "type": "bytes32"
        }
      ],
      "payable": false,
      "stateMutability": "nonpayable",
      "type": "constructor",
      "signature": "constructor"
    },
    {
      "anonymous": false,
      "inputs": [
        {
          "indexed": false,
          "name": "newPrice",
          "type": "uint256"
        }
      ],
      "name": "OracleUpdated",
      "type": "event",
      "signature": "0x1d9f8660b46684cf0620a1aec89ad8da885e41a4f67fd708b483914dda0e66ed"
    },
    {
      "anonymous": false,
      "inputs": [
        {
          "indexed": true,
          "name": "id",
          "type": "bytes32"
        }
      ],
      "name": "ChainlinkRequested",
      "type": "event",
      "signature": "0xb5e6e01e79f91267dc17b4e6314d5d4d03593d2ceee0fbb452b750bd70ea5af9"
    },
    {
      "anonymous": false,
      "inputs": [
        {
          "indexed": true,
          "name": "id",
          "type": "bytes32"
        }
      ],
      "name": "ChainlinkFulfilled",
      "type": "event",
      "signature": "0x7cc135e0cebb02c3480ae5d74d377283180a2601f8f644edf7987b009316c63a"
    },
    {
      "anonymous": false,
      "inputs": [
        {
          "indexed": true,
          "name": "id",
          "type": "bytes32"
        }
      ],
      "name": "ChainlinkCancelled",
      "type": "event",
      "signature": "0xe1fe3afa0f7f761ff0a8b89086790efd5140d2907ebd5b7ff6bfcb5e075fd4c5"
    },
    {
      "constant": false,
      "inputs": [],
      "name": "createRequest",
      "outputs": [
        {
          "name": "requestId",
          "type": "bytes32"
        }
      ],
      "payable": false,
      "stateMutability": "nonpayable",
      "type": "function",
      "signature": "0xc9579078"
    },
    {
      "constant": false,
      "inputs": [
        {
          "name": "_requestId",
          "type": "bytes32"
        },
        {
          "name": "_gasPrice",
          "type": "uint256"
        }
      ],
      "name": "fulfill",
      "outputs": [],
      "payable": false,
      "stateMutability": "nonpayable",
      "type": "function",
      "signature": "0x4357855e"
    },
    {
      "constant": true,
      "inputs": [],
      "name": "getCurrentGasPrice",
      "outputs": [
        {
          "name": "_currentGasPrice",
          "type": "uint256"
        }
      ],
      "payable": false,
      "stateMutability": "view",
      "type": "function",
      "signature": "0x11af6564"
    },
    {
      "constant": true,
      "inputs": [],
      "name": "getLinkBalance",
      "outputs": [
        {
          "name": "_balance",
          "type": "uint256"
        }
      ],
      "payable": false,
      "stateMutability": "view",
      "type": "function",
      "signature": "0x50c5f975"
    }
  ],
  "bytecode": "0x60806040526001600455670de0b6b3a76400006001026006557320fe562d797a42dcb3399062ae9546cd06f63280600960006101000a81548173ffffffffffffffffffffffffffffffffffffffff021916908373ffffffffffffffffffffffffffffffffffffffff16021790555073c99b3d447826532722e41bc36e644ba3479e4365600a60006101000a81548173ffffffffffffffffffffffffffffffffffffffff021916908373ffffffffffffffffffffffffffffffffffffffff1602179055503480156100ce57600080fd5b5060405160208061132483398101806040528101908080519060200190929190505050610108610119640100000000026401000000009004565b806007816000191690555050610229565b6101e373c89bd4e1632d3a43cb03aaad5262cbe4038bc57173ffffffffffffffffffffffffffffffffffffffff166338cc48316040518163ffffffff167c0100000000000000000000000000000000000000000000000000000000028152600401602060405180830381600087803b15801561019457600080fd5b505af11580156101a8573d6000803e3d6000fd5b505050506040513d60208110156101be57600080fd5b81019080805190602001909291905050506101e5640100000000026401000000009004565b565b80600260006101000a81548173ffffffffffffffffffffffffffffffffffffffff021916908373ffffffffffffffffffffffffffffffffffffffff16021790555050565b6110ec806102386000396000f300608060405260043610610062576000357c0100000000000000000000000000000000000000000000000000000000900463ffffffff16806311af6564146100675780634357855e1461009257806350c5f975146100cd578063c9579078146100f8575b600080fd5b34801561007357600080fd5b5061007c61012b565b6040518082815260200191505060405180910390f35b34801561009e57600080fd5b506100cb600480360381019080803560001916906020019092919080359060200190929190505050610135565b005b3480156100d957600080fd5b506100e26102ec565b6040518082815260200191505060405180910390f35b34801561010457600080fd5b5061010d6103eb565b60405180826000191660001916815260200191505060405180910390f35b6000600854905090565b8160056000826000191660001916815260200190815260200160002060009054906101000a900473ffffffffffffffffffffffffffffffffffffffff1673ffffffffffffffffffffffffffffffffffffffff163373ffffffffffffffffffffffffffffffffffffffff1614151561023a576040517f08c379a00000000000000000000000000000000000000000000000000000000081526004018080602001828103825260288152602001807f536f75726365206d75737420626520746865206f7261636c65206f662074686581526020017f207265717565737400000000000000000000000000000000000000000000000081525060400191505060405180910390fd5b60056000826000191660001916815260200190815260200160002060006101000a81549073ffffffffffffffffffffffffffffffffffffffff021916905580600019167f7cc135e0cebb02c3480ae5d74d377283180a2601f8f644edf7987b009316c63a60405160405180910390a2816008819055507f1d9f8660b46684cf0620a1aec89ad8da885e41a4f67fd708b483914dda0e66ed826040518082815260200191505060405180910390a1505050565b6000600960009054906101000a900473ffffffffffffffffffffffffffffffffffffffff1673ffffffffffffffffffffffffffffffffffffffff166370a08231306040518263ffffffff167c0100000000000000000000000000000000000000000000000000000000028152600401808273ffffffffffffffffffffffffffffffffffffffff1673ffffffffffffffffffffffffffffffffffffffff168152602001915050602060405180830381600087803b1580156103ab57600080fd5b505af11580156103bf573d6000803e3d6000fd5b505050506040513d60208110156103d557600080fd5b8101908080519060200190929190505050905090565b60006103f561101e565b61042560075430634357855e7c01000000000000000000000000000000000000000000000000000000000261055a565b90506104a66040805190810160405280600781526020017f65787450617468000000000000000000000000000000000000000000000000008152506040805190810160405280601c81526020017f7472616e73616374696f6e732f6761732f70726564696374696f6e73000000008152508361058b9092919063ffffffff16565b6105256040805190810160405280600481526020017f70617468000000000000000000000000000000000000000000000000000000008152506040805190810160405280601881526020017f7061796c6f61642e617665726167652e676173507269636500000000000000008152508361058b9092919063ffffffff16565b610554600a60009054906101000a900473ffffffffffffffffffffffffffffffffffffffff16826006546105be565b91505090565b61056261101e565b61056a61101e565b6105818585858461094a909392919063ffffffff16565b9150509392505050565b6105a2828460800151610a0490919063ffffffff16565b6105b9818460800151610a0490919063ffffffff16565b505050565b600030600454604051602001808373ffffffffffffffffffffffffffffffffffffffff1673ffffffffffffffffffffffffffffffffffffffff166c01000000000000000000000000028152601401828152602001925050506040516020818303038152906040526040518082805190602001908083835b60208310151561065a5780518252602082019150602081019050602083039250610635565b6001836020036101000a038019825116818451168082178552505050505050905001915050604051809103902090506004548360600181815250508360056000836000191660001916815260200190815260200160002060006101000a81548173ffffffffffffffffffffffffffffffffffffffff021916908373ffffffffffffffffffffffffffffffffffffffff16021790555080600019167fb5e6e01e79f91267dc17b4e6314d5d4d03593d2ceee0fbb452b750bd70ea5af960405160405180910390a2600260009054906101000a900473ffffffffffffffffffffffffffffffffffffffff1673ffffffffffffffffffffffffffffffffffffffff16634000aea0858461076987610a29565b6040518463ffffffff167c0100000000000000000000000000000000000000000000000000000000028152600401808473ffffffffffffffffffffffffffffffffffffffff1673ffffffffffffffffffffffffffffffffffffffff16815260200183815260200180602001828103825283818151815260200191508051906020019080838360005b8381101561080c5780820151818401526020810190506107f1565b50505050905090810190601f1680156108395780820380516001836020036101000a031916815260200191505b50945050505050602060405180830381600087803b15801561085a57600080fd5b505af115801561086e573d6000803e3d6000fd5b505050506040513d602081101561088457600080fd5b8101908080519060200190929190505050151561092f576040517f08c379a00000000000000000000000000000000000000000000000000000000081526004018080602001828103825260238152602001807f756e61626c6520746f207472616e73666572416e6443616c6c20746f206f726181526020017f636c65000000000000000000000000000000000000000000000000000000000081525060400191505060405180910390fd5b60016004600082825401925050819055508090509392505050565b61095261101e565b6109628560800151610100610c54565b50838560000190600019169081600019168152505082856020019073ffffffffffffffffffffffffffffffffffffffff16908173ffffffffffffffffffffffffffffffffffffffff16815250508185604001907bffffffffffffffffffffffffffffffffffffffffffffffffffffffff191690817bffffffffffffffffffffffffffffffffffffffffffffffffffffffff191681525050849050949350505050565b610a118260038351610cae565b610a248183610e0c90919063ffffffff16565b505050565b6060600360009054906101000a900473ffffffffffffffffffffffffffffffffffffffff1673ffffffffffffffffffffffffffffffffffffffff16634042994690507c01000000000000000000000000000000000000000000000000000000000260008084600001518560200151866040015187606001516001896080015160000151604051602401808973ffffffffffffffffffffffffffffffffffffffff1673ffffffffffffffffffffffffffffffffffffffff16815260200188815260200187600019166000191681526020018673ffffffffffffffffffffffffffffffffffffffff1673ffffffffffffffffffffffffffffffffffffffff168152602001857bffffffffffffffffffffffffffffffffffffffffffffffffffffffff19167bffffffffffffffffffffffffffffffffffffffffffffffffffffffff1916815260200184815260200183815260200180602001828103825283818151815260200191508051906020019080838360005b83811015610bb7578082015181840152602081019050610b9c565b50505050905090810190601f168015610be45780820380516001836020036101000a031916815260200191505b509950505050505050505050604051602081830303815290604052907bffffffffffffffffffffffffffffffffffffffffffffffffffffffff19166020820180517bffffffffffffffffffffffffffffffffffffffffffffffffffffffff83818316178352505050509050919050565b610c5c61108c565b6000602083811515610c6a57fe5b06141515610c8757602082811515610c7e57fe5b06602003820191505b81836020018181525050604051808452600081528281016020016040525082905092915050565b601781111515610ce057610cda8160058460ff169060020a0260ff161784610e2e90919063ffffffff16565b50610e07565b60ff81111515610d2757610d0a601860058460ff169060020a021784610e2e90919063ffffffff16565b50610d2181600185610e4e9092919063ffffffff16565b50610e06565b61ffff81111515610d6f57610d52601960058460ff169060020a021784610e2e90919063ffffffff16565b50610d6981600285610e4e9092919063ffffffff16565b50610e05565b63ffffffff81111515610db957610d9c601a60058460ff169060020a021784610e2e90919063ffffffff16565b50610db381600485610e4e9092919063ffffffff16565b50610e04565b67ffffffffffffffff81111515610e0357610dea601b60058460ff169060020a021784610e2e90919063ffffffff16565b50610e0181600885610e4e9092919063ffffffff16565b505b5b5b5b5b505050565b610e1461108c565b610e2683846000015151848551610e70565b905092915050565b610e3661108c565b610e468384600001515184610f2d565b905092915050565b610e5661108c565b610e67848560000151518585610f7d565b90509392505050565b610e7861108c565b600080600085518511151515610e8d57600080fd5b87602001518588011115610eb857610eb7886002610eb18b602001518b8a01610fde565b02610ffa565b5b875180518860208301019450808988011115610ed45788870182525b60208801935050505b602085101515610f025781518352602083019250602082019150602085039450610edd565b6001856020036101000a03905080198251168184511681811785525050879350505050949350505050565b610f3561108c565b836020015183101515610f5457610f53846002866020015102610ffa565b5b8351805160208583010184815381861415610f70576001820183525b5050508390509392505050565b610f8561108c565b600085602001518584011115610fa557610fa486600287860102610ffa565b5b6001836101000a0390508551838682010185831982511617815281518588011115610fd05784870182525b505085915050949350505050565b600081831115610ff057829050610ff4565b8190505b92915050565b60608260000151905061100d8383610c54565b506110188382610e0c565b50505050565b60c06040519081016040528060008019168152602001600073ffffffffffffffffffffffffffffffffffffffff16815260200160007bffffffffffffffffffffffffffffffffffffffffffffffffffffffff19168152602001600081526020016110866110a6565b81525090565b604080519081016040528060608152602001600081525090565b6040805190810160405280606081526020016000815250905600a165627a7a72305820acf7d154592c6eb40bbc71f7df1b0080438f274a669b422e21ed93e6f519960e0029",
  "source": "pragma solidity ^0.4.24;\n\nimport \"chainlink/contracts/ChainlinkClient.sol\";\n\ninterface ERC20 {\n  function balanceOf(address _address) returns(uint);\n}\n\n\ncontract GasOracle is ChainlinkClient {\n  uint256 ORACLE_PAYMENT = 1 * LINK;\n  bytes32 jobId;\n\n  uint currentGasPrice;\n\n  event OracleUpdated(uint newPrice);\n\n  address LINK_ADDRESS_ROPSTEN = 0x20fE562d797A42Dcb3399062AE9546cd06f63280;\n  address ORACLE_ADDRESS_ROPSTEN = 0xc99B3D447826532722E41bc36e644ba3479E4365; // AMBERDATA\n\n  constructor (bytes32 _jobId) public {\n    setPublicChainlinkToken();\n    jobId = _jobId;\n  }\n\n  // only works if contract is funded with > 1 LINK\n  /* bool == true > predictions, bool == false > percentiles */\n  function createRequest() public returns (bytes32 requestId) {\n      Chainlink.Request memory req = buildChainlinkRequest(\n          jobId,\n          this,\n          this.fulfill.selector\n      );\n\n      req.add(\"extPath\", \"transactions/gas/predictions\");\n      req.add(\"path\", \"payload.average.gasPrice\");\n\n      requestId = sendChainlinkRequestTo(ORACLE_ADDRESS_ROPSTEN, req, ORACLE_PAYMENT);\n  }\n\n  function fulfill(bytes32 _requestId, uint256 _gasPrice)\n    public\n    recordChainlinkFulfillment(_requestId)\n  {\n    currentGasPrice = _gasPrice;\n    emit OracleUpdated(_gasPrice);\n  }\n\n  function getCurrentGasPrice() public view returns(uint _currentGasPrice){\n    return currentGasPrice;\n  }\n\n  function getLinkBalance() view returns (uint _balance){\n    return ERC20(LINK_ADDRESS_ROPSTEN).balanceOf(address(this));\n  }\n\n  function random() private view returns (uint) {\n    return uint(block.blockhash(block.number-1))%5 + 1;\n    // returns number between 1 and 5 \n  }\n\n}\n",
  "sourcePath": "/Users/michaeljcohen/Desktop/projects/gas-trader/contracts/GasOracle.sol",
  "compiler": {
    "name": "solc",
    "version": "0.4.24+commit.e67f0147.Emscripten.clang"
  },
  "schemaVersion": "3.0.2",
  "updatedAt": "2019-12-07T22:12:38.342Z",
  "devdoc": {
    "methods": {}
  },
  "userdoc": {
    "methods": {}
  }
}